:020000040800F2
:10000000002000200900000800F012F81D490868CF
:100010004FF0040240EA020008604FF033301A4902
:10002000086043F233301949086000F014F8FCE727
:1000300060B5174D4FF000062E70164D4FF00006BC
:10004000EE704FF00106AE704FF002066E704FF08A
:1000500003062E7060BDF0B50D4D2E7806F1010639
:10006000042E01D14FF000062E700A4D775D0A4D27
:10007000EF5D0A4DAC5D4FEA04242744084D2F6024
:10008000F0BD00BF18100240000801400408014004
:100090000400002000000020A4000008B0000008B8
:1000A0000C0801403F065B4F666D7D077F6F0000C7
:0C00B000070B0D0E000000000000000017
:0400000508000009E6
:00000001FF
