:020000040800F2
:1000000000200020090000081A4908684FF0040287
:1000100040EA02000860184908684FF0010240EA0F
:10002000020008604FF440701449086040F2E73065
:100030001349086041F61F40124908604FF0010063
:100040004FF08041086010494FF004020A6000F050
:1000500006F84FF000020A6000F001F8F3E707B578
:100060000A490A6812F0010FFBD04FF000020A6043
:1000700007BD00BF181002401C10024000080140DC
:100080002C000040280000400C08014010000040F7
:0400000508000009E6
:00000001FF
