:020000040800F2
:10000000002000200900000800F053F900F037F943
:1000100000F0AAF800F0FBF84FF00100BD490860BD
:10002000BD49086810F0020FFBD0BC49086840F2D7
:100030009A518842BCBF002071E040F29E51884234
:10004000BCBF01206BE040F2AF518842BCBF022030
:1000500065E040F2CA518842BCBF03205FE040F235
:10006000EE518842BCBF042059E040F2176188423B
:10007000BCBF052053E040F244618842BCBF06206B
:100080004DE040F274618842BCBF072047E040F277
:10009000A7618842BCBF082041E040F2DA61884293
:1000A000BCBF09203BE040F20D718842BCBF00207C
:1000B0003EE04FF4E8618842BCBF012038E040F2E6
:1000C00072718842BCBF022032E040F2A3718842C4
:1000D000BCBF03202CE040F2D2718842BCBF042098
:1000E00026E04FF400618842BCBF052020E040F6C6
:1000F0002C018842BCBF06201AE040F65701884216
:10010000BCBF072014E040F681018842BCBF082034
:100110000EE040F6A9018842BCBF092008E08049F2
:100120004FF40C7303F101020A6000F08CF808E050
:100130007B494FF40C7303F102020A6000F083F86C
:10014000FFE777494FF40C7303EB00020A6000F0FD
:100150007AF840F203220A6000F075F84FF0C0020E
:100160000A6000F070F8FEE70FB56D494FF05800D7
:10017000086000F068F84FF404720A6000F063F859
:1001800000F10100086000F05EF840F206220A600B
:1001900000F059F800F10100086000F054F840F256
:1001A00009220A6000F04FF800F10100086000F039
:1001B0004AF84FF402720A6000F045F800F10100BD
:1001C000086000F040F84FF402720A6000F03BF85B
:1001D00000F10100086000F036F840F209220A60E0
:1001E00000F031F800F10100086000F02CF840F256
:1001F00006220A6000F027F800F10100086000F014
:1002000022F84FF400720A6000F01DF80FBD03B52C
:1002100043494FF03800086000F015F84FF00C002B
:10022000086000F010F84FF00600086000F00BF8CE
:100230004FF00100086000F006F84FF0020008607F
:1002400000F001F803BD03B536494FF48060086043
:100250004FF08060086000F001F803BD07B5002092
:100260000021002201302128FCD300200131212966
:10027000F8D30020002101321E2AF3D307BD03B5B5
:10028000294940F20D2008604FF0333027490860BB
:1002900040F23330264908604FF0000025490860DD
:1002A0004FF00800244908604FF001001949086028
:1002B00003BD224908684FF4803240EA020008601A
:1002C0004FF40032086810400028F9D01C494FF064
:1002D000120008601B4908681B4A40EA02000860D7
:1002E000164908684FF0807240EA020008604FF03B
:1002F0000072086810400028F9D0124908684CF2D2
:10030000020240EA02000860086810F008000828AD
:10031000FAD1704708240140002401404C240140D8
:100320000C0801401008014018100240000801406C
:1003300004080140000C0140342401400010024038
:0C034000002002400410024000041D00D8
:0400000508000009E6
:00000001FF
