:020000040800F2
:10000000002000205D00000800000000000000004B
:1000100000000000000000000000000000000000E0
:1000200000000000000000000000000000000000D0
:1000300000000000000000000000000000000000C0
:1000400000000000000000000000000000000000B0
:1000500000000000000000004B02000800F0CCF897
:1000600000F099F887494FF00D020A6086494FF079
:1000700001020A604FF033308449086084488549A2
:10008000086042F20F708449086041F61F408349BE
:1000900008604FF00000824908604FF080508149AD
:1000A00008604FF001004FF0804108604FF0010000
:1000B0007D4908604FF001007C4908604FF0010065
:1000C0007B4908604FF001007A4908604FF040001A
:1000D000744908604FF038007749086077494FF459
:1000E00080320A6075494FF002020A6000F005F89C
:1000F00000F027F800F08DF8FCE7F3B5704D4FF0F5
:1001000080562E604FF480562E6000F033F84FF08A
:1001100080562E606B4D2E6816F4004FFBD06A4D52
:100120002F68684D2E6816F4004FFBD1664D2E687F
:10013000A6EB07064FF0110506FB05F7634D2F8070
:10014000F3BDF3B5614D2E88614D06F00F072F709A
:100150004FEA161606F00F076E704FEA161606F0F5
:100160000F07AE704FEA161606F00F07EE70F3BDDC
:10017000F3B5F3BD07B5002000210022401C0A287A
:10018000FCD30020491C0A29F8D300200021521C6E
:100190000F2AF3D307BD4F4908684FF4803240EA75
:1001A000020008604FF40032086810400028F9D0BF
:1001B00049494FF01200086048490868484A40EA37
:1001C00002000860434908684FF0807240EA02006C
:1001D00008604FF00072086810400028F9D03F49CD
:1001E00008684FF0020240EA02000860086810F058
:1001F00008000828FAD1704760B53A4D4FF0000664
:100200002E70334D4FF00006EE70AE706E702E7093
:1002100060BDF0B5334D2E7806F10106042E01D1F4
:100220004FF000062E702A4D775D2F4DEF5D2F4D5C
:10023000AC5D4FEA042427442D4D2F60F0BD07B577
:100240002C494FF000020A6007BD07B52A490A6829
:1002500012F0020F08D019494FF40032FFF74DFF9A
:10026000FFF76FFF0A6007E014494FF00202FFF743
:1002700044FFFFF766FF0A6020494FF001020A6061
:1002800007BD0000181002401C1002400008014089
:1002900033330340040801402C0000402800004094
:1002A0000C00004000E100E00800014000040140B3
:1002B0000404014008040140000C0140100C0140FE
:1002C00010080140080801402400004006000020FA
:1002D00000000020001002400020024004100240F4
:1002E00000041D00040000200003000810030008A3
:1002F0000C080140100000400C0C014014040140A7
:100300003F065B4F666D7D077F6F777C395E797145
:0C031000070B0D0E0000000000000000B4
:040000050800005D92
:00000001FF
