:020000040800F2
:1000000000200020090000086A494FF00400086041
:100010004FF033306849086040F233306749086078
:1000200000F08EF866494FF40C7000F102020A608D
:1000300000F0A3F800F100020A6000F09EF800F161
:1000400002020A6000F099F800F100020A6000F074
:1000500094F840F22E220A6000F08FF800F10102BD
:100060000A6000F08AF800F101020A6000F085F8E9
:1000700040F22E220A6000F080F800F108020A60C7
:1000800000F07BF84FF408720A6000F076F80A601E
:1000900000F073F80A6000F070F800F102020A60E4
:1000A00000F06BF800F103020A6000F066F84FF40C
:1000B00008720A6000F061F840F2412000F102028B
:1000C0000A6000F05AF84FF0C0020A6000F055F8DC
:1000D00000F112020A6000F050F800F118020A6004
:1000E00000F04BF800F112020A6000F046F800F14F
:1000F00014020A6000F041F840F22E220A6000F07B
:100100003CF800F104020A6000F037F800F1030245
:100110000A6000F032F800F114020A6000F02DF8D5
:1001200040F22E220A6000F028F800F102020A6074
:1001300000F023F800F10D020A6000F01EF8FEE75F
:1001400003B51F494FF03800086000F016F84FF073
:100150000C00086000F011F84FF00600086000F095
:100160000CF84FF00100086000F007F84FF00200B3
:10017000086000F002F8BDE8034003B511494FF4F0
:10018000806008604FF08060086000F001F803BDF7
:1001900007B500200021002201302128FCD30020D7
:1001A00001312129F8D3002000210132032AF3D3A1
:1001B00007BD00001810024000080140040801407B
:0801C0000C0801401008014089
:0400000508000009E6
:00000001FF
