:020000040800F2
:1000000000200020B50000080000000000000000F3
:1000100000000000000000000000000000000000E0
:1000200000000000000000000000000000000000D0
:1000300000000000000000000000000000000000C0
:1000400000000000000000000000000000000000B0
:1000500000000000000000000000000000000000A0
:100060000000000000000000000000000000000090
:100070000000000000000000000000000000000080
:100080000000000000000000000000000000000070
:100090000000000000000000000000000000000060
:1000A0000000000000000000000000000000000050
:1000B0001902000800F02FF800F07DF85F494FF0BA
:1000C00001020A605E4908684FF0040240EA02003B
:1000D00008604FF033305B49086043F233305A49CF
:1000E000086042F20F705949086041F61F405849B4
:1000F00008604FF00100574908604FF080505649A2
:1001000008604FF001004FF0804108604FF000039D
:1001100000F03BF8FCE760B5504D4FF000062E7044
:100120004F4D4FF00106EE704FF00006AE706E704E
:100130002E7060BD22B54A4D2978A1F101012970C8
:10014000B1F1FF3F20D14FF0090129706978A1F189
:1001500001016970B1F1FF3F16D14FF005016970DF
:10016000A978A1F10101A970B1F1FF3F0CD14FF0C5
:100170000901A970E978A1F10101E970B1F1FF3F2E
:1001800002D14FF00201E97022BDF0B5334D2E7857
:1001900006F10106042E01D14FF000062E70304DFD
:1001A000775D304DEF5D304DAC5D4FEA0424274460
:1001B0002E4D2F60F0BD2E4908684FF4803240EA82
:1001C000020008604FF40032086810400028F9D09F
:1001D00028494FF01200086027490868274A40EA7A
:1001E00002000860224908684FF0807240EA02006D
:1001F00008604FF00072086810400028F9D01E49CE
:1002000008684FF0020240EA02000860086810F037
:1002100008000828FAD1704707B5194813490A6839
:1002200012F0040F01D0026000E002601549FFF7F0
:1002300081FF4FF000020A6007BD00001C10024061
:100240001810024000080140040801402C00004042
:10025000280000400C00004000E100E00400002005
:100260000000002088020008940200080C080140E9
:1002700000100240002002400410024000041D0053
:1002800010080140100000403F065B4F666D7D077F
:100290007F6F0000070B0D0E000000000000000043
:04000005080000B53A
:00000001FF
