:020000040800F2
:10000000002000205D00000800000000000000004B
:1000100000000000000000000000000000000000E0
:1000200000000000000000000000000000000000D0
:1000300000000000000000000000000000000000C0
:1000400000000000000000000000000000000000B0
:100050000000000000000000A70000081C494FF04D
:1000600009020A604FF001001A4908604FF00100D0
:10007000194908604FF00100184908604FF001006D
:10008000174908604FF04000164908604FF03800EB
:100090001549086015494FF480320A6013494FF042
:1000A00002020A60FEE707B511490A6812F0020F62
:1000B00004D00E494FF400320A6003E00B494FF0C0
:1000C00002020A600B494FF001020A6007BD00BF3F
:1000D00018100240080001400004014004040140DF
:1000E0000804014000E100E0000C0140100C014058
:0800F0000C0C01401404014056
:040000050800005D92
:00000001FF
