:020000040800F2
:1000000000200020B50000080000000000000000F3
:1000100000000000000000000000000000000000E0
:1000200000000000000000000000000000000000D0
:1000300000000000000000000000000000000000C0
:1000400000000000000000000000000000000000B0
:1000500000000000000000000000000000000000A0
:100060000000000000000000000000000000000090
:100070000000000000000000000000000000000080
:100080000000000000000000000000000000000070
:100090000000000000000000000000000000000060
:1000A0000000000000000000000000000000000050
:1000B0006301000800F024F833494FF001020A60A0
:1000C00032494FF004020A604FF440703049086032
:1000D00042F20F702F49086041F61F402E49086018
:1000E0004FF001002D4908604FF080502C49086006
:1000F0004FF001004FF0804108604FF00003FEE731
:10010000284908684FF4803240EA020008604FF442
:100110000032086810400028F9D023494FF012003F
:10012000086022490868224A40EA020008601D4926
:1001300008684FF0807240EA020008604FF00072D9
:10014000086810400028F9D0184908684FF00202EA
:1001500040EA02000860086810F008000828FAD198
:10016000704707B5134814490A6812F0040F03D00A
:100170004FF48022026002E04FF0040202600F4957
:100180004FF000020A6007BD1C1002401810024028
:10019000000801402C000040280000400C000040F6
:1001A00000E100E000100240002002400410024084
:1001B00000041D00100801400C0801401000004020
:04000005080000B53A
:00000001FF
