:020000040800F2
:10000000002000200900000800F034F83E4908688C
:100010004FF0040240EA020008603C4908684FF0D3
:10002000010240EA020008604FF0333038490860AE
:1000300043F233303749086040F2E7303649086010
:1000400041F61F40354908604FF001004FF08041F4
:10005000086000F003F800F030F8FAE707B530491F
:1000600000F015F80A6812F0010FF9D04FF0000205
:100070000A6007BD60B52B4D4FF000062E702A4D6B
:100080004FF00006EE70AE706E702E7060BDF0B571
:10009000244D2E7806F10106042E01D14FF0000602
:1000A0002E70214D775D214DEF5D214DAC5D4FEA06
:1000B000042427441F4D2F60F0BD22B51A4D297826
:1000C00001F1010129700A291DD14FF000012970A9
:1000D000697801F101016970062914D14FF000011E
:1000E0006970A97801F10101A9700A290BD14FF0BB
:1000F0000001A970E97801F10101E970062902D136
:100100004FF00001E97022BD181002401C1002409F
:1001100000080140040801402C0000402800004075
:1001200010000040040000200000002038010008FA
:10013000440100080C0801403F065B4F666D7D07D7
:100140007F6F0000070B0D0E000000000000000094
:0400000508000009E6
:00000001FF
